:0400000080313028F3
:100008007E14803120007F08F2000B1F1528210084
:10001800911E15282000911E15288C318C248031C2
:100028002B280B1F21282100111F21282000111F18
:1000380021288B31B02380312B280B1F2B2821003E
:10004800111E2B282000111E2B288C31A724720882
:100058002000FF007E100900803132288B315823A0
:100068008031EC008B3159238031ED008B315A23DC
:100078008031EE00693084008B3085002100120049
:10008800D9001200DA001200DB001200DC001200B6
:10009800DD00F801F901FA012000E601E701E801B5
:1000A800E901EA01EB01A030840000308500393015
:1000B8008B3180237E1020008731DB2F2000DE006B
:1000C800420803196E285E08C500420886008701A9
:1000D800450881005E08860087010108D7008C3139
:1000E80033248031031C7E2801302000C5004508D8
:1000F800DE076E282000D8012D305706031D8728FB
:10010800D801D80A8B282B305706031D8F280130B9
:10011800C5004508DE07D7010030DD000030DC00EF
:100128000030DB000030DA00D901A6285E0886001E
:1001380087012E300106031DA82858160130C50076
:100148004508DE07581E9A285E08860087010108C0
:100158008B31F7238031031C09292000D81405307E
:10016800D5000030D6005708C500C601C51BC60318
:100178005508033EC7000030563DC80046084806EB
:10018800031DC8284508470603190229581ED02808
:10019800FF30C5004508D9070130C5004508D70715
:1001A8000030A3000030A2000030A1000A30A000F7
:1001B8005D08A7005C08A6005B08A5005A08A40013
:1001C8008D318925803120002308DD002208DC00DC
:1001D8002108DB002008DA005E0886008701010894
:1001E800D03EC500C601C701C8014508DA07460860
:1001F800DB3D4708DC3D4808DD3DA228581AA22807
:100208000130C5004508D907A2282000D7015E089B
:100218008600870165300106031919295E088600E2
:10022800870145300106031D8D290130C5004508A9
:10023800DE075E08860087012D300106031D26298A
:10024800D8152D295E08860087012B300106031D6D
:1002580031290130C5004508DE075E0886008701A0
:100268003030010603192D295E0886008701010830
:100278008B31F7238031031C882920005E08860013
:1002880087010108D03EC5004508D7000130C500E8
:100298004508DE075E088600870101088B31F723D1
:1002A8008031031C882920005E08860087010A30F7
:1002B800C5004508F30057088C3122248031010716
:1002C800D03E2000C6004608D7000130C5004508CA
:1002D800DE075E088600870101088B31F72380312D
:1002E800031C882920005E08860087010A30C500A3
:1002F8004508F30057088C31222480310107D03E8D
:100308002000C6004608D7002000D81D8D29D7092F
:10031800D70A5708C5004508D9074208031DD81C45
:100328009C295E08C50042088600870145088100AF
:100338005D08A6005C08A5005B08A4005A08A30095
:100348008E312A26803120002308DA002408DB00B9
:100358002508DC005C085B045A04031DBA29003038
:10036800C2000030C3000030C4000800D91F322A80
:10037800D909D90A5908803A763E031CF82903306E
:10038800A3001530A4005030A5005A08A6005B0849
:10039800A7005C08A8008731322780312000230895
:1003A800DA002408DB002508DC00F630C500450823
:1003B800D907BE290030A3002030A4004130A50091
:1003C8005A08A6005B08A7005C08A80087313227F6
:1003D800803120002308DA002408DB002508DC002F
:1003E800FF30C5004508D9075908031DDE2900302C
:1003F800C9008030CA000030CB005A08B9005B0839
:10040800BA005C08BB004908BC004A08BD004B089C
:10041800BE008D31EE2580310318AB2A2000581C10
:100428002B2A0030CC008030CD000030CE004C08A4
:10043800F3004D08F4004E08F5008B31962373083D
:100448002000C2007408C3007508C400080000300A
:10045800C2008030C3000030C40008005908803A48
:100468007F3E0318522AAB2A0330A9001530AA0090
:100478005030AB005A08AC005B08AD005C08AE0019
:1004880086317E26803120002908DA002A08DB0020
:100498002B08DC00F630C5004508D9070A30590298
:1004A800031C712A382A0030A9002030AA004130E4
:1004B800AB005A08AC005B08AD005C08AE008631A2
:1004C8007E26803120002908DA002A08DB002B0864
:1004D800DC00FF30C5004508D9075908031D572A15
:1004E800FF30CF007F30D0007F30D1004F08B900F7
:1004F8005008BA005108BB005A08BC005B08BD0090
:100508005C08BE008D31EE2580310318AB2A20002F
:10051800581CA42A0030D2008030D3000030D40008
:100528005208F3005308F4005408F5008B31962361
:1005380073082000C2007408C3007508C4000800CE
:100548000030C2008030C3000030C4000800200022
:10055800581CBD2A5A08F3005B08F4005C08F50033
:100568008B31962373082000DA007408DB007508C5
:10057800DC005A08C2005B08C3005C08C40008001D
:100588008B317A23823174082100D1007308D0009E
:1005980050092000D400210051092000D500D40AB8
:1005A8000319D50A21005C08200054072100CA005D
:1005B8005D082000553D2100CB004B082000A40019
:1005C80021004A082000A3008D313A2582312000FD
:1005D8002308AC002408AD002508AE002100590806
:1005E8002000A90021005A082000AA0021005B0869
:1005F8002000AB0086317E26823120002908BC000D
:100608002A08BD002B08BE006C08AC006D08AD00C0
:100618006E08AE006608A9006708AA006808AB0063
:1006280086317E26823120002908B9002A08BA00BE
:100638002B08BB008331E623823120003908D6001D
:100648003A08D7003B08D8005608BC005708BD0038
:100658005808BE000030B9004830BA004230BB002C
:100668008331E623823120003908C6003A08C700E2
:100678003B08C8008F3179278231200047082100C4
:10068800C900200046082100C8004B082000A4002B
:1006980021004A082000A3008D313A25823120002C
:1006A8002308B9002408BA002508BB006608BC0066
:1006B8006708BD006808BE008331E6238231200048
:1006C8003908E6003A08E7003B08E8000030B900BE
:1006D8007A30BA004330BB006608A9006708AA0050
:1006E8006808AB006C08AC006D08AD006E08AE0081
:1006F80086317E26823120002908BC002A08BD00E8
:100708002B08BE008D31EE2582310318922B003064
:100718002000E6007A30E7004330E8002000660851
:10072800A9006708AA006808AB006C08AC006D084F
:10073800AD006E08AE0086317E2682312000290881
:10074800B9002A08BA002B08BB000030BC007A3078
:10075800BD00C330BE008D31EE2582310318BB2B9E
:1007680000302000E6007A30E700C330E8002000BF
:100778006E086D046C04031DC72B0030E6000030C2
:10078800E7000030E80021004908803A2000D40042
:1007980080305402031DD32BC83021004802031CAB
:1007A800DA2BC8302100C8000030C9002100C91F59
:1007B800DF2BC801C9014908F4004808F3008C314F
:1007C8004524080020003908BF003A08C0003B084B
:1007D800C1000310400D410DC2004208C5003C088D
:1007E800BF003D08C0003E08C1000310400D410D88
:1007F800C2004208C400450803190E2C44084502EB
:100808000318152C4503FF3A4407BF0019303F026F
:10081800031C152C3C08B9003D08BA003E08BB0073
:100828000800440803190800450844020318242C4A
:100838004403FF3A4507BF0019303F020318080078
:100848000630BF003F08C300BB1BC317BE1B4317BE
:10085800BA17FF30B905FF30BA050030BB05BD1720
:10086800FF30BC05FF30BD050030BE054408450219
:100878000318602C0130BC35BD0DBE0D890B3F2C13
:100888000130C4024408450603195B2C0130C30239
:100898004308073903195B2C3E2C0130BB36BA0CD0
:1008A800B90C890B522C0130BF003F08C507450819
:1008B80044060319852C512C450844020318852C3D
:1008C8000130B935BA0DBB0D890B652C0130C50255
:1008D800440845060319812C0130C302430807392F
:1008E8000319812C642C0130BE36BD0CBC0C890B5D
:1008F800782C0130BF003F08C40745084406031D93
:10090800772CC31F972CFF30B906FF30BA06FF308B
:10091800BB060130B907003003180130BA070030B0
:1009280003180130BB07431FA92CFF30BC06FF305A
:10093800BD06FF30BE060130BC0700300318013089
:10094800BD07003003180130BE07C3013908BC07D2
:100958003A08BD3D3B08BE3DBE1FC42CFF30BC0657
:10096800FF30BD06FF30BE060130BC07003003185B
:100978000130BD07003003180130BE07C301C30AA8
:100988003C08F3003D08F4003E08F5004508BF00A8
:100998003F08F6004308C0004008F7008E31A7263C
:1009A80073082000B9007408BA007508BB00080075
:1009B80021004F08803A2000E40080306402031DC3
:1009C800E82C0B3021004E02031C0D2D8B316E23B9
:1009D800843174082100BF007308BE000A3020006B
:1009E800A9009030AA0021003F082000AC00210097
:1009F8003E082000AB008531C62584310D3020002B
:100A0800A9009030AA008531C62584312100CE0185
:100A1800CF0101302100CE070030CF3D78080319FF
:100A28000800CC01CD0102302000E5003830E40098
:100A3800AD30890B1D2DE40B1D2DE50B1D2D780800
:100A48000319392D8C31C32484312000E40021009E
:100A58004C08A03E86008701200064088100013010
:100A68002100CC070030CD3D232D21004C08A03EAD
:100A780086008701810120082000E4006408E9005D
:100A880069088C31132484312000E4006408E900EB
:100A98002100DE01DF015F08803A2000E400803099
:100AA8006402031D5A2D083021005E020318B82D78
:100AB80021005E08013EA03E860087010108200053
:100AC800E40021005E08D23E860087012000640809
:100AD800810001302100DE070030DF3D4F2DD2308C
:100AE8008F310E278431200023082100C100200007
:100AF80022082100C0004108F4004008F3008B31AF
:100B080074230800D2308C310524843120005F081A
:100B18002100BB00200060082100BC002000610803
:100B28002100BD003B08F3003C08F4003D08F50037
:100B38008B318E230800D2308C310524843120007B
:100B48005F082100B800200060082100B9002000DB
:100B580061082100BA003808F3003908F4003A089F
:100B6800F5008B318623080020006908493A0319EB
:100B78009F2D193A0319862D033A0319732DC52D94
:100B8800080008002B302000AD002D08B10020001F
:100B98002A08AE002908AD00A90A0319AA0A2D08D7
:100BA80084002E0885000008AF002F08B60036081C
:100BB80003190800253036060319E72D36088B314E
:100BC8005F238531CB2D2000B2012A08AE00290809
:100BD800AD00A90A0319AA0A2D0884002E08850069
:100BE8000008B600003A03197D2E643A0319002E56
:100BF8000D3A0319002ECB2D310886008701403F9E
:100C0800B400413FB5000230AD002D08B107B51F53
:100C1800162E0330AD002D08B204B409B509B40A84
:100C28000319B50AB601B60A0530360603193B2E74
:100C38003608AD00AE01AD35AE0D00302D0784008D
:100C480090302E3D8500003FAF00013FB0003008D6
:100C58003502031D312E2F083402031C3B2E0130B0
:100C6800AD002D08B60705303606031D1C2E3208C8
:100C780003390319432E2D308B315F238531200032
:100C88003608AD002D08B300FF302000AD002D0858
:100C9800B307330A0319CB2D0A30A3000030A40090
:100CA8003308AD00AE01AD35AE0D00302D07840020
:100CB80090302E3D8500003FF300013FF4003508D9
:100CC800F6003408F5008D31B92585317408200007
:100CD800A6007308A5008D315C2585312000230806
:100CE800303EAF002F08B60036088B315F238531C0
:100CF800482E080020002908AF002A08B0002B0859
:100D0800B1000310300D310DB2003208B3003308C2
:100D1800031D952E0030A9000030AA000030AB005A
:100D280008002C08AF002D08B0002E08B1000310F1
:100D3800300D310DB2003208B8003808031DAB2E53
:100D48000030A9000030AA000030AB0008003808C5
:100D58007B3EAF002F08B3072908AF002A08B00070
:100D68002B08B1001030B136B00CAF0C890BB72E80
:100D78002F08B2003208B8002C08AF002D08B000C8
:100D88002E08B1001030B136B00CAF0C890BC72E4D
:100D98002F08B2003208B8068030AF002F08B80517
:100DA800AA17AD17FF30AC05FF30AD050030AE0512
:100DB8000030B4000030B5000030B6000730AF0096
:100DC8002F08B700291CEE2E2C08B4072D08B53DB6
:100DD8002E08B63D0130AB36AA0CA90C890BEF2EB4
:100DE8000130AC35AD0DAE0D890BF52E0130B702D3
:100DF800031DE62E0930AF002F08B700291C0A2F63
:100E08002C08B4072D08B53D2E08B63D0130AB3689
:100E1800AA0CA90C890B0B2F0130B636B50CB40CF3
:100E2800890B112F0130B702031D022F3408F3007C
:100E38003508F4003608F5003308AF002F08F6002F
:100E48003808B0003008F7008E31A7267308200054
:100E5800A9007408AA007508AB000800200026083D
:100E6800A9002708AA002808AB0003102A0D2B0D9B
:100E7800AC002C08B1003108031D492F0030A30035
:100E88000030A4000030A50008002308A9002408A9
:100E9800AA002508AB0003102A0D2B0DAC002C0866
:100EA800B2003208031D5F2F0030A3000030A400F9
:100EB8000030A50008000030AE000030AF00003060
:100EC800B00089303207A9002908B1022608A90014
:100ED8002708AA002808AB001030AB36AA0CA90CCA
:100EE800890B712F2908AC002C08B2002308A9002F
:100EF8002408AA002508AB001030AB36AA0CA90CB0
:100F0800890B812F2908AC002C08B2068030A90073
:100F18002908B205A717FF30A605FF30A70500303E
:100F2800A805A417FF30A305FF30A4050030A505C8
:100F38001830A9002908AD000130AE35AF0DB00D4D
:100F4800890BA12F25082802031DB02F240827028A
:100F5800031DB02F23082602031CB92F2308A6025D
:100F68002408A73B2508A83B2E140130A635A70D59
:100F7800A80D890BBA2F0130AD02031DA02F2E0832
:100F8800F3002F08F4003008F5003108A9002908FB
:100F9800F6003208AA002A08F7008E31A72673083F
:100FA8002000A3007408A4007508A50008008C316F
:100FB8005B2487318B170B1710308C3173248731E2
:100FC80074082100E1007308E0006108F600600879
:100FD800F5008B31EA2387318B3164238731003A5E
:100FE8000319F02F8B31C62387318231C422873110
:080FF8008431DC248731F02F65
:10169E0021009D14080020001F1508002000971738
:1016AE000800D734A3343B342030210097000800C3
:1016BE00F50075088D31192508002000100E890CD3
:1016CE0001390800003480343F34C834003421001E
:1016DE005108F4005008F300080074082100DD00E2
:1016EE007308DC00080021004308F4004208F300F0
:1016FE000800640080010131890B812B00347308CE
:10170E002000EC007408ED007508EE000800730868
:10171E002100D9007408DA007508DB00080075088E
:10172E0074047304031908008030F50608003200B3
:10173E0099019B019D0106309F009E01080001301A
:10174E0020009F0031309E009D0191108B3152235D
:10175E00080021001C08F000F1017008C200710899
:10176E00C300200011130800013021009D0020301D
:10177E009E0005309F009B019C0111170800200060
:10178E0097018330980026309600950190128B3188
:10179E005523080080302C00990018309800C03076
:1017AE0097001F08FC3901389F000800F4007408E8
:1017BE00F300F30DF30D21001D08730603397306B4
:1017CE009D001D14080012308B31DD238B318B31BF
:1017DE004F238B318B31A6238B318B315223080053
:1017EE00F400F3013A3074020318032C3030740203
:1017FE00031C032CF301F30A730C08002000E30012
:10180E00C20163088031622020004208DF004308D5
:10181E00E0004408E1000800F4007B307402031875
:10182E00202C61307402031C202CDF30F30073086F
:10183E00F40574080800F600F501761C2A2C7308CE
:10184E00F4007408F5070310F30D0310F60C760878
:10185E00031D242C75080800F400F301F30A203050
:10186E0074060319432C0E3074020318422C0930EF
:10187E0074020318432CF301730C08007408F6006D
:10188E007308F500F636F50CF636F50C75082C00D7
:10189E00980073080339F5000530F535FF3E031D3A
:1018AE00542C7535970008008E3167268C318B319C
:1018BE009E238C318B315B238C318B31BB238C314E
:1018CE008B31D1238C318B31A6238C318B31C623B6
:1018DE008C318C31DF240800F6007608F500F50D0A
:1018EE00F50D21001D087506033975069D001D14A2
:1018FE000D30890B802C000021009D149D18852C25
:10190E001C08F4001B08F300080023009D1C912CFA
:10191E001D121D161908F00020006A08A83E860048
:10192E008701700881000130F0007008EA07083066
:10193E006A020318EA010130F0007008F807080087
:10194E000830210062020318C12C7A08B03E8600CE
:10195E008701010823009A000130F0007008FA0791
:10196E0008307A020318FA010130F00070082100E5
:10197E00E207080011120800F40178080319C42CBC
:10198E0020006B08A83E860087010108F30073084B
:10199E00F4000130F3007308EB0708306B020318F4
:1019AE00EB01210091120130F80291167408080023
:1019BE00210091121112083023009F0090309D00DB
:1019CE0024309E0040309B0003309C00F901FA0148
:1019DE000830F30073082100E2002000EA01EB0159
:1019EE00F8012100911608002000A001A101731C2E
:1019FE00052D75082000A0077608A13D0130F535AC
:101A0E00F60D890B062D0130F436F30C890B0B2DD8
:101A1E0073087404031DFE2C20002108F400200816
:101A2E00F3000800F4002100620803191A2D111AA0
:101A3E00242D740823009A00372D11127408F30018
:101A4E007908B03E86008701730881000130F300EB
:101A5E007308F907083079020318F9010130E20220
:101A6E002100111608002000A801A41F452DA3096E
:101A7E00A409A30A0319A40AA801A80A2308F300BB
:101A8E002408F400F5018E30A6002608F60028087A
:101A9E00A7002708F7008E31A72673082000A300A1
:101AAE007408A4007508A50008002000230824046B
:101ABE000319842DA801A80AA41B6F2D0130A3358C
:101ACE00A40D890B662D0130A7002708A807632DEA
:101ADE0024082602031D752D23082502031C7B2DC9
:101AEE002308A5022408A63B0130A436A30C890BBB
:101AFE007C2D0130A802031D6F2D2608A400250899
:101B0E00A30008000030F6000030F5000030F400AD
:101B1E000030F3002000201C9C2D2408F30725081C
:101B2E00F43D2608F53D2708F63D0130A435A50DF8
:101B3E00A60DA70D890B9D2D0130A336A20CA10C6D
:101B4E00A00C890BA42D2308220421042004031DBC
:101B5E00912D7608A3007508A2007408A1007308E1
:101B6E00A00008002000A101A2017308740403194B
:101B7E00E92DA001A00AF41BCE2D0130F335F40D92
:101B8E00890BC52D0130F7007708A007C22D013053
:101B9E00A135A20D890BCF2D74087602031DD92D08
:101BAE0073087502031CE02D7308F5027408F63BEA
:101BBE0021140130F436F30C890BE12D0130A00213
:101BCE00031DCE2D2208F4002108F300080020008A
:101BDE00BB1F052E3909BF003A09C0003B09C100E1
:101BEE00BF0A0319C00A0319C10A00303F07B90022
:101BFE000030403DBA008030413DBB00BE1F1B2E61
:101C0E003C09BF003D09C0003E09C100BF0A0319CF
:101C1E00C00A0319C10A00303F07BC000030403D26
:101C2E00BD008030413DBE008030BB068030BE0618
:101C3E003E083B02031D08003D083A02031D080042
:101C4E003C08390208002000AA018E30A7002708A0
:101C5E00A900A61F3F2EA309A409A509A609A30A38
:101C6E000319A40A0319A50A0319A60AAA01AA0AA6
:101C7E00FF30260503194F2E0130A636A50CA40CF5
:101C8E00A30C890B442E0130A7002708A9073F2E6D
:101C9E002308F3002408F4002508F5002908A700FE
:101CAE002708F6002A08A8002808F7008E31A72674
:101CBE0073082000A3007408A4007508A50008008E
:101CCE0022008C018D018E01373021008C003030C6
:101CDE008D007D308E00FF3023008E00D0308D00C1
:101CEE0037308C0024008D018C018E0125008C0173
:101CFE008D018E0100308B1B0130F3008B1355309C
:101D0E003C008F00AA308F000F103D002108E039F3
:101D1E000238A1003C002408E0390D38A4003D0033
:101D2E001F08E03914389F0055303C008F00AA3050
:101D3E008F000F14731CA52E8B1708008B13080031
:101D4E0076080319AF2E750874047304031DC12E93
:101D5E000030F3000030F4000030F50008000130D0
:101D6E002000A0002008F6070130F536F40CF30C25
:101D7E00890BBC2EFE3075050319DB2EB62E0130F5
:101D8E002000A0002008F6070130F30700300318EA
:101D9E000130F407003003180130F5070130F53635
:101DAE00F40CF30C890BD62EFF3075050319E82EB3
:101DBE00C62E0130F6020130F335F40DF50D890B08
:101DCE00E32EF41BEE2E023076020318E02E761868
:101DDE00F62EFF30F3057F30F405FF30F5050310C6
:101DEE00F60C76082000A000A101A2011030A0354B
:101DFE00A10DA20D890BFE2E2008F3042108F40478
:101E0E002208F504770803190800F51708002000CA
:101E1E00A90029088600870120300106031D1C2F0A
:101E2E000130A4002408A907102F29088600870175
:101E3E00093001060319172FA701A801A6012908C9
:101E4E00860087012D300106031D322F0130A400BC
:101E5E002408A607392F2908860087012B30010692
:101E6E00031D3D2F0130A4002408A9072908860070
:101E7E00870101088B31F7238F31031C642F20005B
:101E8E002808F4002708F3000A30F5000030F600A9
:101E9E008C31FB248F312000290886008701010830
:101EAE007307A40074080318740AA5002408D03E12
:101EBE00A700FF30253DA800392F20002608031962
:101ECE00742F2709A4002809A500A40A0319A50A3E
:101EDE002408A2002508A30008002808A30027084C
:101EEE00A200080020004608CA004708CB00480898
:101EFE00CC0003104B0D4C0DCD004D08D3005308F4
:101F0E00031D922F0030C9000030C8000030C700FA
:101F1E000030C60008004608CA004708CB00480833
:101F2E00CC001730CC36CB0CCA0C890B992F4A0833
:101F3E00CD004D08CE00C717FF30C605FF30C705D0
:101F4E000030C8054608CF004708D0004808D10029
:101F5E00D2018E30D302D31FD02F5308803A8F3E3A
:101F6E000318C22F0030C9000030C8000030C7006F
:101F7E000030C60008000130D236D10CD00CCF0C88
:101F8E00890BC32F0130CA004A08D3070319E92F62
:101F9E00C22F18305302031CE62F0030C900003048
:101FAE00C8000030C7000030C60008000130CF3531
:101FBE00D00DD10DD20D890BDE2F0130D302530877
:101FCE00031DDD2F4E080319F72FCF09D009D109B4
:101FDE00D209CF0A0319D00A0319D10A0319D20A5A
:101FEE005208C9005108C8005008C7004F08C60063
:101FFE000800013400340A34003464340034E83408
:10200E000334103427342534643400343E34003421
:020000040001F9
:08000E008CFFF3FFFFFFFFFF71
:00000001FF
