:1000000080313028C83400347E14803120007F08CD
:10001000F2000B1F15282100911E15282000911EAB
:1000200015288D31412580312B280B1F21282100D7
:10003000111F21282000111F21288C3165248031B7
:100040002B280B1F2B282100111E2B282000111EEE
:100050002B288731E32772082000FF007E1009005B
:1000600080313228803102208031ED008031032040
:100070008031EE00353084008C3085002100120084
:10008000D0001200D1001200D2001200D3001200E2
:10009000D4001200D500F801F901FA015B308400A8
:1000A0000030850012308C312F248031A030840044
:1000B0000030850030308C312F247E1020008E31AE
:1000C000232E2000C700390803196D284708BC00FB
:1000D0003908860087013C088100470886008701AF
:1000E0000108C0008C31E8248031031C7D280130D8
:1000F0002000BC003C08C7076D282000C1012D303E
:100100004006031D8628C101C10A8A282B304006FB
:10011000031D8E280130BC003C08C707C001003019
:10012000C6000030C5000030C4000030C300C2016A
:10013000A5284708860087012E300106031DA72841
:1001400041160130BC003C08C707411E99284708EA
:100150008600870101088C31AC248031031CF5280E
:100160002000C114083040060319EE28411EBC28A7
:10017000FF30BC003C08C2070130BC003C08C0078F
:100180000030A3000030A2000030A1000A30A0001F
:100190004608A7004508A6004408A5004308A40097
:1001A0008E315026803120002308C6002208C50069
:1001B0002108C4002008C300470886008701010801
:1001C000D03EBC00BD01BE01BF013C08C3073D08D5
:1001D000C43D3E08C53D3F08C63DA128411AA1289F
:1001E0000130BC003C08C207A1282000C00147081C
:1001F0008600870165300106031905294708860036
:10020000870145300106031D79290130BC003C08F7
:10021000C7074708860087012D300106031D1229F4
:10022000C11519294708860087012B300106031DD7
:100230001D290130BC003C08C7074708860087011C
:100240003030010603191929470886008701010883
:100250008C31AC248031031C7429200047088600AF
:1002600087010108D03EBC003C08C0000130BC0042
:100270003C08C70747088600870101088C31AC2479
:100280008031031C742920004708860087010A304A
:10029000BC003C08F30040088C31D72480310107B2
:1002A000D03E2000BD003D08C0000130BC003C082D
:1002B000C70747088600870101088C31AC248031CC
:1002C000031C742920004708860087010A30BC00FF
:1002D0003C08F30040088C31D72480310107D03E20
:1002E0002000BD003D08C0002000C11D7929C009C3
:1002F000C00A4008BC003C08C2073908031DC11CE5
:1003000088294708BC003908860087013C0881001D
:100310004608A6004508A5004408A4004308A30019
:100320008E31F126803120002308C3002408C40048
:100330002508C500450844044304031DA6290030D0
:10034000B9000030BA000030BB000800C21F092A03
:10035000C209C20A4208803A763E031CE4290330EF
:10036000A3001530A4005030A5004308A60044089F
:10037000A7004508A8008631732680312000230895
:10038000C3002408C4002508C500F630BC003C08A2
:10039000C207AA290030A3002030A4004130A500E4
:1003A0004308A6004408A7004508A8008631732624
:1003B000803120002308C3002408C4002508C5009C
:1003C000FF30BC003C08C2074208031DCA2943088D
:1003D000A0004408A1004508A2000030A30080301E
:1003E000A4000030A5008E31B526803103186D2A97
:1003F0002000411C022A0030B9008030BA00803051
:10040000BB0008000030B9008030BA000030BB00EB
:1004100008004208803A7F3E0318292A6D2A0330DB
:10042000A9001530AA005030AB004308AC004408C6
:10043000AD004508AE008531102580312000290827
:10044000C3002A08C4002B08C500F630BC003C08D5
:10045000C2070A304202031C482A0F2A0030A900B2
:100460002030AA004130AB004308AC004408AD0086
:100470004508AE0085311025803120002908C300D1
:100480002A08C4002B08C500FF30BC003C08C20786
:100490004208031D2E2AFF30A0007F30A1007F30CC
:1004A000A2004308A3004408A4004508A5008E311B
:1004B000B526803103186D2A2000411C662A0030C1
:1004C000B9008030BA008030BB0008000030B900AD
:1004D0008030BA000030BB0008002000411C7F2A99
:1004E0004308F3004408F4004508F5008C314B2420
:1004F00073082000C3007408C4007508C5004308D1
:10050000B9004408BA004508BB00080020003908BB
:10051000BF003A08C0003B08C1000310400D410D68
:10052000C2004208C5003C08BF003D08C0003E08AC
:10053000C1000310400D410DC2004208C40045082F
:100540000319AE2A440845020318B52A4503FF3AA9
:100550004407BF0019303F02031CB52A3C08B9000C
:100560003D08BA003E08BB00080044080319080013
:10057000450844020318C42A4403FF3A4507BF0054
:1005800019303F02031808000630BF003F08C300BF
:10059000BB1BC317BE1B4317BA17FF30B905FF308B
:1005A000BA050030BB05BD17FF30BC05FF30BD05E7
:1005B0000030BE05440845020318002B0130BC354D
:1005C000BD0DBE0D890BDF2A0130C402440845066B
:1005D0000319FB2A0130C302430807390319FB2A18
:1005E000DE2A0130BB36BA0CB90C890BF22A013075
:1005F000BF003F08C507450844060319252BF12A0B
:10060000450844020318252B0130B935BA0DBB0D3E
:10061000890B052B0130C502440845060319212B1F
:100620000130C302430807390319212B042B013081
:10063000BE36BD0CBC0C890B182B0130BF003F0827
:10064000C40745084406031D172BC31F372BFF3073
:10065000B906FF30BA06FF30BB060130B9070030DB
:1006600003180130BA07003003180130BB07431FDD
:10067000492BFF30BC06FF30BD06FF30BE060130FF
:10068000BC07003003180130BD07003003180130EB
:10069000BE07C3013908BC073A08BD3D3B08BE3D53
:1006A000BE1F642BFF30BC06FF30BD06FF30BE0608
:1006B0000130BC07003003180130BD0700300318BB
:1006C0000130BE07C301C30A3C08F3003D08F40033
:1006D0003E08F5004508BF003F08F6004308C0008B
:1006E0004008F7008F312E2773082000B9007408E6
:1006F000BA007508BB00080021004208803A2000BB
:10070000CD0080304D02031D882B0B3021004102AB
:10071000031CA82B8C311D24833174082000E100B8
:100720007308E0001030A9009030AA006108AC0006
:100730006008AB0084315824833113302000A900B5
:100740009030AA008431582483312100C101C201B4
:1007500001302100C1070030C23D780803190800AC
:100760002000DE01DF0102302000CE003830CD0055
:10077000AD30890BB92BCD0BB92BCE0BB92B78082B
:100780000319D22B8D31772583312000CD005E08EF
:10079000A03E860087014D0881000130DE07003051
:1007A000DF3DBF2B20005E08A03E8600870181014F
:1007B000210020082000CD004D08EA006A088C3195
:1007C000C82483312000CD004D08EA00CF01D001BC
:1007D0005008803ACD0080304D02083003194F0296
:1007E00003184A2C20004F08013EA03E86008701D6
:1007F0000108CD004F08C93E860087014D088100E1
:100800000130CF070030D03DE82BC9308F3195271C
:100810008331200023082100C40020002208210089
:10082000C3004408F4004308F3008C31232408007B
:10083000C9308C31BA248331200048082100B80027
:10084000200049082100B90020004A082100BA0010
:100850003808F3003908F4003A08F5008C314324D5
:100860000800C9308C31BA248331200048082100A7
:10087000BB00200049082100BC0020004A082100DC
:10088000BD003B08F3003C08F4003D08F5008C3146
:100890003B24080020006A08493A0319312C193A10
:1008A0000319182C033A0319052C572C08000800CB
:1008B0002B302000AD002D08B10020002A08AE002A
:1008C0002908AD00A90A0319AA0A2D0884002E08D8
:1008D00085000008AF002F08B6003608031908008D
:1008E000253036060319792C36088C3113248431CF
:1008F0005D2C2000B2012A08AE002908AD00A90A2B
:100900000319AA0A2D0884002E0885000008B600E5
:10091000003A03190F2D643A0319922C0D3A03196A
:10092000922C5D2C310886008701403FB400413F86
:10093000B5000230AD002D08B107B51FA82C03305B
:10094000AD002D08B204B409B509B40A0319B50AFB
:10095000B601B60A053036060319CD2C3608AD00AF
:10096000AE01AD35AE0D00302D07840090302E3D28
:100970008500003FAF00013FB00030083502031D85
:10098000C32C2F083402031CCD2C0130AD002D08E0
:10099000B60705303606031DAE2C3208033903199D
:1009A000D52C2D308C311324843120003608AD0035
:1009B0002D08B300FF302000AD002D08B307330A27
:1009C00003195D2C0A30A3000030A4003308AD00E9
:1009D000AE01AD35AE0D00302D07840090302E3DB8
:1009E0008500003FF300013FF4003508F6003408AD
:1009F000F5008E318026843174082000A60073082B
:100A0000A5008D31F625843120002308303EAF004B
:100A10002F08B60036088C3113248431DA2C0800F4
:100A200020002908AF002A08B0002B08B1000310ED
:100A3000300D310DB2003208B3003308031D272DED
:100A40000030A9000030AA000030AB0008002C08DC
:100A5000AF002D08B0002E08B1000310300D310D8D
:100A6000B2003208B8003808031D3D2D0030A9003F
:100A70000030AA000030AB00080038087B3EAF0011
:100A80002F08B3072908AF002A08B0002B08B100CF
:100A90001030B136B00CAF0C890B492D2F08B200C5
:100AA0003208B8002C08AF002D08B0002E08B100A5
:100AB0001030B136B00CAF0C890B592D2F08B20095
:100AC0003208B8068030AF002F08B805AA17AD1756
:100AD000FF30AC05FF30AD050030AE050030B4008E
:100AE0000030B5000030B6000730AF002F08B70067
:100AF000291C802D2C08B4072D08B53D2E08B63DC5
:100B00000130AB36AA0CA90C890B812D0130AC3514
:100B1000AD0DAE0D890B872D0130B702031D782D69
:100B20000930AF002F08B700291C9C2D2C08B407F2
:100B30002D08B53D2E08B63D0130AB36AA0CA90CE8
:100B4000890B9D2D0130B636B50CB40C890BA32D45
:100B50000130B702031D942D3408F3003508F4006A
:100B60003608F5003308AF002F08F6003808B0004B
:100B70003008F7008F312E2773082000A900740871
:100B8000AA007508AB0008008C312924853174084F
:100B90002000E7007308E6006609D4006709D50065
:100BA000D40A0319D50A6D085407E4006E08553DB0
:100BB000E500210050082000A90021005108200074
:100BC000AA00210052082000AB006508A4006408B8
:100BD000A3008D31B125853120002308AC00240805
:100BE000AD002508AE00853110258531200029088B
:100BF000D6002A08D7002B08D8005B08B9005C088B
:100C0000BA005D08BB00210053082000A9002100A4
:100C100054082000AA00210055082000AB006508F8
:100C2000A4006408A3008D31B1258531200023087C
:100C3000AC002408AD002508AE00853110258531B3
:100C400020002908BC002A08BD002B08BE00823104
:100C50008622853120003908DB003A08DC003B0899
:100C6000DD005608BC005708BD005808BE005B08F0
:100C7000B9005C08BA005D08BB008231862285316C
:100C800020003908C6003A08C7003B08C800873171
:100C90001C27853120004708DA004608D9005A0889
:100CA000803AD40080305402031D582EFF30590280
:100CB00003186B2E20005A08803AD400803054026A
:100CC000031D642E01305902031C6B2E20005A08AC
:100CD000E3005908E20020006308F4006208F30012
:100CE0008C31FA24080020002608A9002708AA0051
:100CF0002808AB0003102A0D2B0DAC002C08B10006
:100D00003108031D8A2E0030A3000030A4000030FB
:100D1000A50008002308A9002408AA002508AB00A4
:100D200003102A0D2B0DAC002C08B2003208031D55
:100D3000A02E0030A3000030A4000030A500080061
:100D40000030AE000030AF000030B0008930320714
:100D5000A9002908B1022608A9002708AA00280826
:100D6000AB001030AB36AA0CA90C890BB22E2908A7
:100D7000AC002C08B2002308A9002408AA0025080A
:100D8000AB001030AB36AA0CA90C890BC22E290877
:100D9000AC002C08B2068030A9002908B205A717BC
:100DA000FF30A605FF30A7050030A805A417FF30C7
:100DB000A305FF30A4050030A5051830A9002908B7
:100DC000AD000130AE35AF0DB00D890BE22E250818
:100DD0002802031DF12E24082702031DF12E2308EB
:100DE0002602031CFA2E2308A6022408A73B250886
:100DF000A83B2E140130A635A70DA80D890BFB2E9C
:100E00000130AD02031DE12E2E08F3002F08F4007F
:100E10003008F5003108A9002908F6003208AA00B8
:100E20002A08F7008F312E2773082000A3007408CA
:100E3000A4007508A500080020004608CA0047085D
:100E4000CB004808CC0003104B0D4C0DCD004D08D5
:100E5000D3005308031D352F0030C9000030C800EF
:100E60000030C7000030C60008004608CA00470826
:100E7000CB004808CC001730CC36CB0CCA0C890B01
:100E80003C2F4A08CD004D08CE00C717FF30C605DD
:100E9000FF30C7050030C8054608CF004708D0001E
:100EA0004808D100D2018E30D302D31F732F5308CC
:100EB000803A8F3E0318652F0030C9000030C8000B
:100EC0000030C7000030C60008000130D236D10C17
:100ED000D00CCF0C890B662F0130CA004A08D3070B
:100EE00003198C2F652F18305302031C892F0030F3
:100EF000C9000030C8000030C7000030C60008003C
:100F00000130CF35D00DD10DD20D890B812F01309D
:100F1000D3025308031D802F4E0803199A2FCF09BF
:100F2000D009D109D209CF0A0319D00A0319D10A6D
:100F30000319D20A5208C9005108C8005008C70056
:100F40004F08C600080022008C018D018E01373049
:100F500021008C0030308D007D308E00FF3023006A
:100F60008E00D0308D0037308C0024008D018C0134
:100F70008E0125008C018D018E0100308B1B01300C
:100F8000F3008B1355303C008F00AA308F000F10F8
:100F90003D002108E0390238A1003C002408E03976
:100FA0000D38A4003D001F08E03914389F0055306B
:100FB0003C008F00AA308F000F14731CE12F8B1799
:100FC00008008B130800083020006F020318FD2F63
:100FD0007908B03E86008701010823009A0001309D
:100FE000F0007008F907083079020318F9010130A0
:100FF000F00070082000EF0708002100111208001F
:10180C0021009D14080020001F15080020009717C8
:10181C0008002030210097000800F50075088D3174
:10182C00D32508002000100E890C01390800200077
:10183C006708F4006608F300080074082000EE0046
:10184C007308ED00080020006908F4006808F30034
:10185C000800640080010131890B302C0034003405
:10186C0080343F34D734A3343B3473082100D30085
:10187C007408D4007508D500080073082100D00046
:10188C007408D1007508D20008007508740473043C
:10189C00031908008030F5060800320099019B01FD
:1018AC009D0106309F009E010800013020009F0022
:1018BC0031309E009D0191108C31092408002100CB
:1018CC001C08F000F10170082000E8007108E90024
:1018DC0011130800013021009D0020309E000530BE
:1018EC009F009B019C011117080020009701833079
:1018FC00980026309600950190128C310C2408002B
:10190C0080302C00990018309800C03097001F08C8
:10191C00FC3901389F000800F4007408F300F30D43
:10192C00F30D21001D087306033973069D001D1469
:10193C00080012308C3192248C318C3106248C317D
:10194C008C315B248C318C3109240800F400F301B8
:10195C003A3074020318B82C30307402031CB82CC3
:10196C00F301F30A730C08002000CC00B9014C08F9
:10197C008031612020003908C8003A08C9003B08B2
:10198C00CA000800F4007B3074020318D52C6130B7
:10199C007402031CD52CDF30F3007308F4057408B3
:1019AC000800F600F501761CDF2C7308F4007408AF
:1019BC00F5070310F30D0310F60C7608031DD92C54
:1019CC0075080800F400F301F30A203074060319BB
:1019DC00F82C0E3074020318F72C0930740203181B
:1019EC00F82CF301730C08007408F6007308F5006A
:1019FC00F636F50CF636F50C75082C0098007308C5
:101A0C000339F5000530F535FF3E031D092D7535FD
:101A1C00970008008731A3278D318C3153248D31E9
:101A2C008C310F248D318C3170248D318C31862486
:101A3C008D318C315B248D318C317B248D318D310A
:101A4C005C250800F6007608F500F50DF50D210073
:101A5C001D087506033975069D001D140D30890B84
:101A6C00352D000021009D149D183A2D1C08F40002
:101A7C001B08F300080023009D1C462D1D121D168B
:101A8C001908F00020006C08A83E86008701700839
:101A9C0081000130F0007008EC0708306C0203186C
:101AAC00EC010130F0007008F807080021009112D9
:101ABC001112083023009F0090309D0024309E00AE
:101ACC0040309B0003309C00FA01F9010830F30010
:101ADC0073082000EF00EC01EB01F80121009116D6
:101AEC000800F40178080319782D20006B08A83E33
:101AFC00860087010108F3007308F4000130F3003D
:101B0C007308EB0708306B020318EB0121009112EC
:101B1C000130F8029116740808002000A001A10100
:101B2C00731C9D2D75082000A0077608A13D01307F
:101B3C00F535F60D890B9E2D0130F436F30C890B1F
:101B4C00A32D73087404031D962D20002108F400A6
:101B5C002008F30008002000A801A41FBC2DA30935
:101B6C00A409A30A0319A40AA801A80A2308F300CC
:101B7C002408F400F5018E30A6002608F60028088B
:101B8C00A7002708F7008F312E2773082000A30029
:101B9C007408A4007508A5000800F40020006F0864
:101BAC000319D42D2100111ADF2D740823009A007B
:101BBC00F32D11127408F3007A08B03E86008701E9
:101BCC00730881000130F3007308FA0708307A02B9
:101BDC000318FA0101302000EF0221001116080051
:101BEC0020002308240403191E2EA801A80AA41BF4
:101BFC00092E0130A335A40D890B002E0130A7004E
:101C0C002708A807FD2D24082602031D0F2E2308E4
:101C1C002502031C152E2308A5022408A63B01301F
:101C2C00A436A30C890B162E0130A802031D092E15
:101C3C002608A4002508A30008008D3110258E313C
:101C4C008B170B170A302000A9009030AA008431A2
:101C5C0058248E3110308D3128258E317408210096
:101C6C00D7007308D6005708F6005608F5008C31DB
:101C7C009F248E318C3118248E31003A0319402E5A
:101C8C008C317B248E318531C4258E3183317C237C
:101C9C008E31402E0030F6000030F5000030F4009C
:101CAC000030F3002000201C632E2408F3072508C5
:101CBC00F43D2608F53D2708F63D0130A435A50D69
:101CCC00A60DA70D890B642E0130A336A20CA10C16
:101CDC00A00C890B6B2E2308220421042004031D65
:101CEC00582E7608A3007508A2007408A10073088A
:101CFC00A00008002000A101A201730874040319BC
:101D0C00B02EA001A00AF41B952E0130F335F40D72
:101D1C00890B8C2E0130F7007708A007892E013033
:101D2C00A135A20D890B962E74087602031DA02EE8
:101D3C0073087502031CA72E7308F5027408F63B92
:101D4C0021140130F436F30C890BA82E0130A002BB
:101D5C00031D952E2208F4002108F3000800200032
:101D6C00A21FCC2E2009F3002109F4002209F50052
:101D7C00F30A0319F40A0319F50A00307307A000DB
:101D8C000030743DA1008030753DA200A51FE22EED
:101D9C002309F3002409F4002509F500F30A0319BB
:101DAC00F40A0319F50A00307307A3000030743DE0
:101DBC00A4008030753DA5008030A2068030A506B9
:101DCC0025082202031D080024082102031D080017
:101DDC002308200208002000AA018E30A700270843
:101DEC00A900A61F062FA309A409A509A609A30AE1
:101DFC000319A40A0319A50A0319A60AAA01AA0A17
:101E0C00FF3026050319162F0130A636A50CA40C9D
:101E1C00A30C890B0B2F0130A7002708A907062F4D
:101E2C002308F3002408F4002508F5002908A7006E
:101E3C002708F6002A08A8002808F7008F312E275B
:101E4C0073082000A3007408A4007508A5000800FE
:101E5C0076080319362F750874047304031D482F74
:101E6C000030F3000030F4000030F50008000130C1
:101E7C002000A0002008F6070130F536F40CF30C16
:101E8C00890B432FFE3075050319622F3D2F01304E
:101E9C002000A0002008F6070130F30700300318DB
:101EAC000130F407003003180130F5070130F53626
:101EBC00F40CF30C890B5D2FFF30750503196F2F94
:101ECC004D2F0130F6020130F335F40DF50D890B71
:101EDC006A2FF41B752F023076020318672F7618C1
:101EEC007D2FFF30F3057F30F405FF30F50503102F
:101EFC00F60C76082000A000A101A2011030A0353C
:101F0C00A10DA20D890B852F2008F3042108F404E0
:101F1C002208F504770803190800F51708002000BB
:101F2C00A90029088600870120300106031DA32F74
:101F3C000130A4002408A907972F290886008701DF
:101F4C000930010603199E2FA701A801A601290833
:101F5C00860087012D300106031DB92F0130A40026
:101F6C002408A607C02F2908860087012B300106FC
:101F7C00031DC42F0130A4002408A90729088600DA
:101F8C00870101088C31AC248F31031CEB2F20000E
:101F9C002808F4002708F3000A30F5000030F6009A
:101FAC008D3193258F312000290886008701010887
:101FBC007307A40074080318740AA5002408D03E03
:101FCC00A700FF30253DA800C02F200026080319CC
:101FDC00FB2F2709A4002809A500A40A0319A50AA8
:101FEC002408A2002508A30008002808A30027083D
:101FFC00A2000800013400340A3400346434003484
:10200C00E834033410342734733474346134723448
:0E201C00743400342534643400343E3400340F
:020000040001F9
:08000E008CFFF3FFFFFFFFFF71
:00000001FF
